:1000000012C02CC02BC02AC029C028C0D4C326C00F
:1000100025C024C023C022C021C020C01FC01EC0D4
:100020001DC01CC01BC011241FBECFE5D4E0DEBF25
:10003000CDBF10E0A0E6B0E0E8EEFFE002C0059022
:100040000D92A83CB107D9F720E0A8ECB0E001C0C0
:100050001D92AE3DB207E1F7DED5BDC7D1CFFC01A1
:1000600084EE97E09683858381E0848383838CE0AC
:1000700080831182128284E087830895CF93DF9377
:10008000CDB7DEB72C970FB6F894DEBF0FBECDBF4D
:1000900029833A834B83252F7E838F834E815F8113
:1000A000822F90E070E0262F2150330BF901272F8B
:1000B00030E02E173F070CF45AC0633030F09A013D
:1000C00023703327232B09F401966DE671E0469FD8
:1000D0009001479F300D569F300D11242159334216
:1000E0004D5C57405695479556954795240F351FBB
:1000F000280F391FA8E1B0E002D669877A878B877D
:100100009C87898129853A854B855C85280F311D1F
:10011000411D511DACE3B0E0FED569877A878B871E
:100120009C878A8129853A854B855C85280F311DFE
:10013000411D511DF0D569877A878B879C878B81FC
:1001400029853A854B855C85280F311D411D511D40
:1001500020583C4B4249574CCA01B9012C960FB666
:10016000F894DEBF0FBECDBFDF91CF910895245428
:100170003F4FD9012C91820F911D7F5F98CF982F0F
:100180008F70292F30E097FF08C095FB222720F9B8
:100190009CE0299F800D1124089594E035952795C2
:1001A0009A95E1F723709AE0F4CF982F92959F707B
:1001B0008F702AE0929F800D112408956AE06CD51B
:1001C0008295807F890F0895089809988CE080B9FE
:1001D00085E086BF089524EE26BF06B607FEFDCF54
:1001E00020ED23B924EC26BF06B607FEFDCF13B8D9
:1001F00024EC26BF06B607FEFDCF24EE26BF06B6CA
:1002000007FEFDCF21ED23B924EC26BF06B607FE7D
:10021000FDCFFC01079634EC36BF06B607FEFDCFD6
:1002200023B12193E817F907B9F784E886BF06B62A
:1002300007FEFDCF84E986BF08950F931F93CF93E8
:10024000DF93CDB7DEB760970FB6F894DEBF0FBE71
:10025000CDBF8C01CE01099602DFC801BCDFF801D9
:100260008081A3DF8B87F80181819FDF8A87F80176
:10027000828185DF8987F8018381888B848195DF7E
:100280008C87F80185818F7790DF8D87F8018681D3
:100290008CDF90E08053984F9F878E8788E0FE0127
:1002A0003996DE01119601900D928A95E1F7298128
:1002B0003A814B815C816D817E818F8198856096CA
:1002C0000FB6F894DEBF0FBECDBFDF91CF911F9167
:1002D0000F9108950F931F93CF93DF93CDB7DEB7A0
:1002E00060970FB6F894DEBF0FBECDBF8C01CE0174
:1002F0000996B5DEC8016FDFF801808191819827EA
:10030000892798279B878A87828139DF8987F80127
:100310008381888B84818C8785818F778D87868187
:1003200090E09F878E8788E0FE013996DE01119666
:1003300001900D928A95E1F729813A814B815C8188
:100340006D817E818F81988560960FB6F894DEBFAF
:100350000FBECDBFDF91CF911F910F91089594EE05
:1003600096BF06B607FEFDCF90ED93B994EC96BF0D
:1003700006B607FEFDCF83B984EC86BF06B607FE3E
:10038000FDCF84EE86BF06B607FEFDCF81ED83B9B3
:1003900084EC86BF06B607FEFDCF84EC86BF06B6AA
:1003A00007FEFDCF83B194E896BF06B607FEFDCFEA
:1003B00094E996BF0895FF920F931F93CF93DF9315
:1003C00000D000D000D0CDB7DEB781E1C8DF8D838B
:1003D00082E1C5DF8295869586958370282F30E06F
:1003E00050E040E029833A834B835C83CA01B90122
:1003F00003D520E030E040E85EE369837A838B83B5
:100400009C8369817A818B819C8182D5F62E072F0E
:10041000182F9E839D81892F90E0B0E0A0E0898312
:100420009A83AB83BC83BC01CD01E4D49B01AC01B6
:10043000F9820A831B83AE81AC8369817A818B81C7
:100440009C8174D469837A838B839C8369817A814C
:100450008B819C8126960FB6F894DEBF0FBECDBF70
:10046000DF91CF911F910F91FF90089594EE96BF69
:1004700006B607FEFDCF90ED93B994EC96BF06B695
:1004800007FEFDCF83B984EC86BF06B607FEFDCF1D
:1004900063B984EC86BF06B607FEFDCF84E986BF4C
:1004A0000895CF93DF93862FD42FC22F6831A0F405
:1004B0004C3390F42C3380F481DE682F82E0D6DF59
:1004C0008D2F7CDE682F81E0D1DF8C2F77DE682FC7
:1004D00080E0DF91CF91CACFDF91CF910895CF9384
:1004E000DF93C62FD42FC9012FEF260F2F31C8F469
:1004F0002FEF240F2C30A8F4805D974084369105AF
:1005000080F45CDE682F86E0B1DF8D2F57DE682F28
:1005100085E0ACDF8C2F52DE682F84E0DF91CF9135
:10052000A5CFDF91CF910895FF920F931F93CF93A3
:10053000DF93CDB7DEB728970FB6F894DEBF0FBEB6
:10054000CDBF7BDE252F462F7E838F838EE090E00C
:10055000861B9109ECE0F0E0BF01BED3F62E0E81C0
:100560001F81061B110930E0285A344E200F311F1D
:10057000C8019695879596958795280F391FC801CC
:1005800060E971E095D3260F371FC80164E670E07B
:100590008FD3261B370B42505CE0F59E400D112493
:1005A0005FE1459FC0011124BF0196D3C901860FA9
:1005B000971F67E070E07CD361E0680F83E02896C6
:1005C0000FB6F894DEBF0FBECDBFDF91CF911F9164
:1005D0000F91FF904BCF8FEF860F873010F483E0A1
:1005E00045CF0895CF93DF93C82F8FE0B8DE98E012
:1005F000C99FE0011124682F677F6C2B8FE0DF918A
:10060000CF9134CFCF93DF93C82F8EE0A8DE94E054
:10061000C99FE0011124682F6B7F6C2B8EE0DF9166
:10062000CF9124CFCF93DF93C82F8EE098DE98E050
:10063000C99FE0011124682F677E6C2B8EE0DF914B
:10064000CF9114CFEF920F931F9390E0FC01E355ED
:10065000FF4F30813FB9779BFECF70E08E559F4FA3
:10066000FB01E956FF4FDC018C919081892B8FB9FA
:10067000779BFECF50E064577F4FFA01EF57FF4F53
:10068000DB018C919081892B8FB9779BFECF4A58E3
:100690005F4FFA0180818FB9779BFECF30E0F9017F
:1006A000E355FF4F80818FB9779BFECF10E02E5529
:1006B0003F4FF801E559FF4FD9018C919081892B6B
:1006C0008FB9779BFECF8E2D90E0005A1F4FFC0113
:1006D000EF57FF4FD8012C913081232B2FB9779BF7
:1006E000FECF8A589F4FFC0180818FB9779BFECF48
:1006F0001F910F91EF900895CF92DF92EF92FF92AA
:100700000F931F93CF93DF93382FEB01C053D84F34
:10071000FB01E370FF27CE0164E670E0C9D27C01E3
:10072000CE0160E971E0C4D2EC01CF010296BF01B5
:100730006F5F7F4FBDD201E010E06801C81AD90A8F
:10074000C7010296B7016F5F7F4FB2D2C89EF0011A
:10075000C99EF00DD89EF00D1124CE010296BE0167
:100760006F5F7F4FA5D2E81BF90BC32FD0E0232F7B
:10077000269526952695230F217082E090E0BE01F4
:10078000ABD2280F245EC801BE01A6D2260FCF012E
:100790000296BE018DD2260FCF010196BE0188D2EE
:1007A000822F861BDF91CF911F910F91FF90EF90C9
:1007B000DF90CF9008951F920F920FB60F921124E1
:1007C000EF920F931F932F933F934F935F936F93EA
:1007D0007F938F939F93AF93BF93CF93DF93EF93C9
:1007E000FF938091DD009B998AC0811116C081E042
:1007F0008093DD009A9908C08091DB00863008F074
:10080000F8C08F5F8093DB00E091DB00E73008F0F9
:100810007CC0F0E0E351F84F09948091DB00863012
:10082000C1F42091D9004091D8006091BB0080EDC7
:1008300090E037DE2091B80030E02053384F4091EF
:10084000B9006091BA0080ED90E049DE80ED90E063
:100850006BDE1092DD001092DB00989908C0809149
:10086000DA00843008F06FC08F5F8093DA009999C6
:1008700008C08091DA00882309F468C08150809311
:10088000DA0080ED90E0D9DCC22FB62FF92F20934B
:10089000C8003093C9004093CA005093CB006093C6
:1008A000CC007093CD008093CE009093CF00AAE04F
:1008B000842F6A2FF1D1082FE92F9093D7009091C0
:1008C000DA00923009F47BC008F042C0911171C087
:1008D0004A3008F049C030FD40C02091C900509115
:1008E000C8003AE0842F632FD7D1082F822FD4D1AC
:1008F000482F292F852FD0D1EE2E692F58C088235D
:1009000009F4ABCF813009F475CFC19A87EC90E040
:100910000197F1F700C00000C198FF91EF91DF91BE
:10092000CF91BF91AF919F918F917F916F915F9187
:100930004F913F912F911F910F91EF900F900FBE0C
:100940000F901F9018951092DA0091CF83E097CF07
:10095000933009F440C09430C1F6EE2E0E2F2E2FA6
:100960004E2F6E2F8E2F23C082EF840F823028F0FF
:1009700084ED840F823008F0B0CF8091CB003091AD
:10098000CC00E091CD00F091CE00E05DF7402AE090
:10099000622F82D1082FE92E832F7ED1482F292F55
:1009A000CF016AE070E084D1962F682F892F4ADE4C
:1009B000ACCF832F71D1482F292F8C2F9CCFE09162
:1009C000CD00F091CE00E05DF740852F65D1082F76
:1009D000E92E8B2FE2CF8F2F90E0059667E070E035
:1009E0007BD19AE0E92E0AE02AE04AE06AE08F5FD4
:1009F000DECF1092DB00989907C08091BB00873151
:100A0000B0F48F5F8093BB00999907C08091BB00C1
:100A1000882381F081508093BB008091BB006AE005
:100A20003BD1E92E082F2AE04AE08AE0C0CF10929D
:100A3000BB00EACF87E1EFCF989907C08091D8003B
:100A40008B33D0F48F5F8093D800999907C0809141
:100A5000D8008823A1F081508093D8008091D800DD
:100A60003091BB002AE0622F17D1082FE92E832F87
:100A700013D1292F482FD9CF1092D800E6CF8BE37E
:100A8000EBCF989907C08091D9008B33F0F48F5F3A
:100A90008093D900999907C08091D9008823C1F02B
:100AA00081508093D9008091D9002091D800509135
:100AB000BB003AE0632FF0D0082FE92E822FECD054
:100AC000482F292F852FE8D018CF1092D900E2CFD8
:100AD0008BE3E7CF989913C08091B800833638F53F
:100AE0008F5F8093B8006091B80070E08091B9008A
:100AF00003DE9091BA00891710F48093BA00999997
:100B000013C08091B8008823A9F081508093B80069
:100B10006091B80070E08091B900EEDD9091BA006C
:100B2000891710F48093BA008091B80078CF1092A2
:100B3000B800D9CF83E6EACFC091B800989912C027
:100B40008091B9008C3058F58F5F8093B9006C2F7D
:100B500070E08091B900D0DD9091BA00891710F44F
:100B60008093BA00999912C08091B9008230C8F080
:100B700081508093B9006C2F70E08091B900BCDD8A
:100B80009091BA00891710F48093BA008091B9004F
:100B90002AE0622F81D0082FE92E8C2F69CF81E0C7
:100BA000D4CF8CE0E6CFD091B8001091B9009899DD
:100BB0000BC0C091BA006D2F70E0812F9DDDC8176A
:100BC000C8F4CF5FC093BA00999907C08091BA006A
:100BD0008230A0F081508093BA008091BA003AE050
:100BE000632F5AD0082FE92E812F56D0482F292F56
:100BF0008D2F69CF81E08093BA00E6CF6D2F70E032
:100C0000812F7ADDE8CF88E0E82E08E028E048E090
:100C100068E088E0CCCE87B38E6287BB88B3817DE5
:100C200088BB83E58DB98FEC97E00197F1F700C0A1
:100C300000001FB8779BFECF1FB8779BFECF1FB871
:100C4000779BFECF1FB8779BFECF1FB8779BFECF59
:100C50001FB8779BFECF1FB8779BFECF1FB8779B3F
:100C6000FECFC19A87EC90E00197F1F700C0000039
:100C7000C198AADA84B3807F84BBF8941DBC1CBCE5
:100C80001FBC1EBC83E294EF9BBD8ABD8CE08EBD71
:100C900080E189BF7894FFCF991B79E004C0991F48
:100CA000961708F0961B881F7A95C9F780950895C6
:100CB000AA1BBB1B51E107C0AA1FBB1FA617B70782
:100CC00010F0A61BB70B881F991F5A95A9F780959E
:100CD0009095BC01CD01089597FB072E16F4009462
:100CE00006D077FD08D0E4DF07FC05D03EF49095F0
:100CF00081959F4F0895709561957F4F0895A29FAC
:100D0000B001B39FC001A39F01D0B29F700D811DA0
:100D10001124911D0895F3DFA59F900DB49F900DB0
:100D2000A49F800D911D112408955058BB27AA2718
:100D30000ED0B4C0A5D030F0AAD020F031F49F3F3F
:100D400011F41EF49AC00EF4E095E7FB90C0E92F71
:100D5000B6D080F3BA17620773078407950718F0B7
:100D600071F49EF5CEC00EF4E0950B2EBA2FA02D97
:100D70000B01B90190010C01CA01A0011124FF2748
:100D8000591B99F0593F50F4503E68F11A16F04043
:100D9000A22F232F342F4427585FF3CF4695379542
:100DA0002795A795F0405395C9F77EF41F16BA0B07
:100DB000620B730B840BBAF09150A1F0FF0FBB1FB5
:100DC000661F771F881FC2F70EC0BA0F621F731FFE
:100DD000841F48F4879577956795B795F7959E3F5B
:100DE00008F0B3CF9395880F08F09927EE0F9795E9
:100DF00087950895E89409C097FB3EF490958095F7
:100E0000709561957F4F8F4F9F4F9923A9F0F92FD0
:100E100096E9BB279395F695879577956795B7954E
:100E2000F111F8CFFAF4BB0F11F460FF1BC06F5F34
:100E30007F4F8F4F9F4F16C0882311F096E911C046
:100E4000772321F09EE8872F762F05C0662371F067
:100E500096E8862F70E060E02AF09A95660F771F7B
:100E6000881FDAF7880F9695879597F9089597F96F
:100E70009F6780E870E060E008959FEF80EC089540
:100E800000240A9416161706180609060895002469
:100E90000A9412161306140605060895092E0394E3
:100EA000000C11F4882352F0BB0F40F4BF2B11F457
:100EB00060FF04C06F5F7F4F8F4F9F4F089557FDB6
:100EC0009058440F551F59F05F3F71F04795880FB8
:100ED00097FB991F61F09F3F79F08795089512164F
:100EE00013061406551FF2CF4695F1DF08C01616FB
:100EF00017061806991FF1CF8695710561050894AC
:100F00000895E894BB2766277727CB0197F90895C2
:100F10000BD0C4CFB5DF28F0BADF18F0952309F065
:100F2000A6CFABCF1124EECFCADFA0F3959FD1F3AC
:100F3000950F50E0551F629FF001729FBB27F00D87
:100F4000B11D639FAA27F00DB11DAA1F649F6627DC
:100F5000B00DA11D661F829F2227B00DA11D621F2B
:100F6000739FB00DA11D621F839FA00D611D221FE5
:100F7000749F3327A00D611D231F849F600D211DC9
:100F8000822F762F6A2F11249F5750408AF0E1F06C
:100F900088234AF0EE0FFF1FBB1F661F771F881FB5
:100FA00091505040A9F79E3F510570F060CFAACFF5
:100FB0005F3FECF3983EDCF3869577956795B795A0
:100FC000F795E7959F5FC1F7FE2B880F911D9695CA
:100FD000879597F90895F894FFCF0DCD2DCD51CD7C
:080FE00079CDAACDE0CD0FCEC2
:100FE80040800000000004081020000000010204F6
:100FF80008000000000010204080000001020408E2
:1010080000000000000102000000000000000000D5
:101018000000102040800001020408102000000099
:1010280000000000000000004080000000040810DC
:1010380020408000000102001401010C1F1C1F1E2B
:081048001F1E1F1F1E1F1E1FAB
:00000001FF
